:020000040000FA
:10000000B201FC280408A700871007100710831608
:100010008710071007100F30870583122708B218C2
:100020002E283A30A100FC308D203330A60042202B
:100030001030A10068308D20422064308C202230A6
:10004000A600422028302D200C302D2001302D20FC
:1000500006302D20B21427082E283214A600321C98
:100060003C280710033C031C412841200730A10015
:10007000D0308D20031408003214FE3C0319F728F9
:100080000714321C321087140F3087052608F03908
:1000900087048710A60E3218422832308C200314B1
:1000A0000800B31329080319B3170530A800273037
:1000B000A300103067200330A300E8306720A301BD
:1000C00064306720A3010A30672024086E28A2004C
:1000D0002508A1002408A000C0202008A000A80333
:1000E0000319B313290803197828280203180800F4
:1000F0002008031DB313B31B0800303EF228A301F0
:10010000A200FF30A207031CA307031CF72803303B
:10011000A100DF308D208128A101E83EA000A109C7
:10012000FC30031C9628A00703189328A00764003E
:10013000A10F932820189C28A01CA0280000A0280C
:100140000800A2000330A928A2000430A928A200B8
:100150000530A80023082102031DB0282208200230
:10016000043003180130031902302805031DFF3045
:10017000F7280038031DFF300405031DFF30F72862
:10018000A501A4011030A600210DA40DA50D220883
:10019000A4022308031C230FA5020318D628220853
:1001A000A40723080318230FA5070310A00DA10D12
:1001B000A60BC4282008F7281030A800A101A00130
:1001C000A70CA60C031CEA282208A0072308031882
:1001D000230FA107A10CA00CA50CA40CA80BE028D0
:1001E0002408F728840031088A003008820083132D
:1001F00003138312640008001E30BE00BF011E30CE
:10020000B800B901FE308A01032002308A010320C0
:1002100054308A01032049308A01032045308A0185
:1002200003204D308A01032050308A0103204F30D3
:100230008A0103203A308A010320A9013808A4006A
:100240003908A5000230B000B1018A0151206D309B
:100250008A01032069308A0103206E308A0103205D
:100260008A110A1235218A01022964008A110A12B0
:10027000061C3D298A110A128F2964008A110A126C
:10028000861C45298A110A124E2164008A110A121D
:10029000061D4D298A110A12692108000A30B80783
:1002A0000318B90ABE30A000A1013908A30038081C
:1002B0008A01A7208A110A12031D6029B801B90119
:1002C0000130A300F4308A0180208A110A128821AB
:1002D00008000A30B8020030031C013EB902F630B3
:1002E000A000FF30A1003908A30038088A01A72028
:1002F0008A110A12031D7F29B430B800B9010130F8
:10030000A300F4308A0180208A110A128821080093
:10031000FE308A01032001308A01032008003808DA
:10032000BE003908BF003808A6003908A7003C30D5
:10033000A200A3018A01DC20B8002508B900C10190
:10034000C201C3013808A0003908A100A3013C3054
:100350008A01A1208A110A12031DB3293808C3009B
:100360008A110A12142A3808A0003908A1000E3098
:10037000A30010308A01A420BA003808A000390870
:10038000A100A3013C308A01A120BC003A088400EE
:100390003C088A01B920BC00BD0064003C083D0453
:1003A0008A110A120319EC293808A0003908A100A3
:1003B0003C30A200A3018A01C020C2003808A0007E
:1003C0003908A1003C30A200A3018A01C020240802
:1003D000C3008A110A12142A3808A0003908A100A3
:1003E0003C30A200A3018A01C0202408C3003808C1
:1003F000A0003908A1003C30A200A3018A01C0205E
:10040000C0004008A000A1013C30A200A3018A0165
:10041000C020C1004008A000A1013C30A200A301FF
:100420008A01C0202408C2008A110A12172A08145F
:1004300083160810FE3083128A01032001308A01DE
:10044000032050308A01032052308A0103204F30AC
:100450008A01032047308A01032052308A01032099
:1004600041308A0103204D308A01032041308A0146
:10047000032044308A0103204F308A0103203A30A0
:100480008A010320A9013E08A4003F08A50002300C
:10049000B000B1018A0151206D308A01032069301A
:1004A0008A0103206E308A010320FE308A01032076
:1004B000C1308A01032051308A01032055308A015E
:1004C000032045308A01032044308A010320413053
:1004D0008A0103203A308A01032020308A01032058
:1004E000A9014108A400A5010230B000B1018A01B0
:1004F00051203A308A010320A9014208A400A50135
:100500000230B000B1018A0151203A308A01032043
:10051000A9014308A400A5010230B000B1018A017D
:100520005120C30364004308FF3C8A110A12031DD3
:10053000A62A3B30C30064004208FF3C8A110A121D
:10054000031DA52AC1033B30C200C2034208FF3C81
:10055000031DFF30FF3ABA004308FF3C031DFF3084
:10056000BC003A0884003C088A01B920BC00BD00E8
:1005700064003C083D048A110A120319C22A3B3068
:10058000C200C103A001A1013908A30038088A01F3
:10059000A7208A110A12031D432BFE308A01032073
:1005A00001308A010320FE308A010320C1308A0114
:1005B0000320FE308A01032001308A0103205030DD
:1005C0008A01032052308A0103204F308A01032020
:1005D00043308A01032045308A01032053308A01C9
:1005E00003204F308A010320FE308A010320C130EE
:1005F0008A01032046308A01032049308A01032002
:100600004E308A01032041308A0103204C308A0198
:10061000032049308A0103205A308A0103204130E7
:100620008A01032044308A0103204F308A010320CD
:1006300088148316881083120330A300E8308A01DF
:1006400080208810831688108312081083160810E3
:1006500083120330A300E8308A0180200814831637
:10066000081083120330A300E8308A0180200810AC
:1006700083160810FE3083128A01032001308A019C
:1006800003208A0102290130B8020030031C013E18
:10069000B9020330A300E8308A0180208A01172ABA
:0606A00063008A01502BEB
:02400E007D3FF4
:00000001FF
